{
  "contractName": "NFTMarketplace",
  "abi": [
    {
      "inputs": [],
      "stateMutability": "nonpayable",
      "type": "constructor"
    },
    {
      "anonymous": false,
      "inputs": [
        {
          "indexed": true,
          "internalType": "address",
          "name": "owner",
          "type": "address"
        },
        {
          "indexed": true,
          "internalType": "address",
          "name": "approved",
          "type": "address"
        },
        {
          "indexed": true,
          "internalType": "uint256",
          "name": "tokenId",
          "type": "uint256"
        }
      ],
      "name": "Approval",
      "type": "event"
    },
    {
      "anonymous": false,
      "inputs": [
        {
          "indexed": true,
          "internalType": "address",
          "name": "owner",
          "type": "address"
        },
        {
          "indexed": true,
          "internalType": "address",
          "name": "operator",
          "type": "address"
        },
        {
          "indexed": false,
          "internalType": "bool",
          "name": "approved",
          "type": "bool"
        }
      ],
      "name": "ApprovalForAll",
      "type": "event"
    },
    {
      "anonymous": false,
      "inputs": [
        {
          "indexed": true,
          "internalType": "uint256",
          "name": "tokenId",
          "type": "uint256"
        },
        {
          "indexed": false,
          "internalType": "address",
          "name": "owner",
          "type": "address"
        },
        {
          "indexed": false,
          "internalType": "address",
          "name": "seller",
          "type": "address"
        },
        {
          "indexed": false,
          "internalType": "uint256",
          "name": "price",
          "type": "uint256"
        },
        {
          "indexed": false,
          "internalType": "bool",
          "name": "currentlyListed",
          "type": "bool"
        }
      ],
      "name": "TokenListedSuccess",
      "type": "event"
    },
    {
      "anonymous": false,
      "inputs": [
        {
          "indexed": true,
          "internalType": "address",
          "name": "from",
          "type": "address"
        },
        {
          "indexed": true,
          "internalType": "address",
          "name": "to",
          "type": "address"
        },
        {
          "indexed": true,
          "internalType": "uint256",
          "name": "tokenId",
          "type": "uint256"
        }
      ],
      "name": "Transfer",
      "type": "event"
    },
    {
      "inputs": [
        {
          "internalType": "address",
          "name": "to",
          "type": "address"
        },
        {
          "internalType": "uint256",
          "name": "tokenId",
          "type": "uint256"
        }
      ],
      "name": "approve",
      "outputs": [],
      "stateMutability": "nonpayable",
      "type": "function"
    },
    {
      "inputs": [
        {
          "internalType": "address",
          "name": "owner",
          "type": "address"
        }
      ],
      "name": "balanceOf",
      "outputs": [
        {
          "internalType": "uint256",
          "name": "",
          "type": "uint256"
        }
      ],
      "stateMutability": "view",
      "type": "function",
      "constant": true
    },
    {
      "inputs": [
        {
          "internalType": "uint256",
          "name": "tokenId",
          "type": "uint256"
        }
      ],
      "name": "getApproved",
      "outputs": [
        {
          "internalType": "address",
          "name": "",
          "type": "address"
        }
      ],
      "stateMutability": "view",
      "type": "function",
      "constant": true
    },
    {
      "inputs": [
        {
          "internalType": "address",
          "name": "owner",
          "type": "address"
        },
        {
          "internalType": "address",
          "name": "operator",
          "type": "address"
        }
      ],
      "name": "isApprovedForAll",
      "outputs": [
        {
          "internalType": "bool",
          "name": "",
          "type": "bool"
        }
      ],
      "stateMutability": "view",
      "type": "function",
      "constant": true
    },
    {
      "inputs": [],
      "name": "name",
      "outputs": [
        {
          "internalType": "string",
          "name": "",
          "type": "string"
        }
      ],
      "stateMutability": "view",
      "type": "function",
      "constant": true
    },
    {
      "inputs": [
        {
          "internalType": "uint256",
          "name": "tokenId",
          "type": "uint256"
        }
      ],
      "name": "ownerOf",
      "outputs": [
        {
          "internalType": "address",
          "name": "",
          "type": "address"
        }
      ],
      "stateMutability": "view",
      "type": "function",
      "constant": true
    },
    {
      "inputs": [
        {
          "internalType": "address",
          "name": "from",
          "type": "address"
        },
        {
          "internalType": "address",
          "name": "to",
          "type": "address"
        },
        {
          "internalType": "uint256",
          "name": "tokenId",
          "type": "uint256"
        }
      ],
      "name": "safeTransferFrom",
      "outputs": [],
      "stateMutability": "nonpayable",
      "type": "function"
    },
    {
      "inputs": [
        {
          "internalType": "address",
          "name": "from",
          "type": "address"
        },
        {
          "internalType": "address",
          "name": "to",
          "type": "address"
        },
        {
          "internalType": "uint256",
          "name": "tokenId",
          "type": "uint256"
        },
        {
          "internalType": "bytes",
          "name": "data",
          "type": "bytes"
        }
      ],
      "name": "safeTransferFrom",
      "outputs": [],
      "stateMutability": "nonpayable",
      "type": "function"
    },
    {
      "inputs": [
        {
          "internalType": "address",
          "name": "operator",
          "type": "address"
        },
        {
          "internalType": "bool",
          "name": "approved",
          "type": "bool"
        }
      ],
      "name": "setApprovalForAll",
      "outputs": [],
      "stateMutability": "nonpayable",
      "type": "function"
    },
    {
      "inputs": [
        {
          "internalType": "bytes4",
          "name": "interfaceId",
          "type": "bytes4"
        }
      ],
      "name": "supportsInterface",
      "outputs": [
        {
          "internalType": "bool",
          "name": "",
          "type": "bool"
        }
      ],
      "stateMutability": "view",
      "type": "function",
      "constant": true
    },
    {
      "inputs": [],
      "name": "symbol",
      "outputs": [
        {
          "internalType": "string",
          "name": "",
          "type": "string"
        }
      ],
      "stateMutability": "view",
      "type": "function",
      "constant": true
    },
    {
      "inputs": [
        {
          "internalType": "uint256",
          "name": "tokenId",
          "type": "uint256"
        }
      ],
      "name": "tokenURI",
      "outputs": [
        {
          "internalType": "string",
          "name": "",
          "type": "string"
        }
      ],
      "stateMutability": "view",
      "type": "function",
      "constant": true
    },
    {
      "inputs": [
        {
          "internalType": "address",
          "name": "from",
          "type": "address"
        },
        {
          "internalType": "address",
          "name": "to",
          "type": "address"
        },
        {
          "internalType": "uint256",
          "name": "tokenId",
          "type": "uint256"
        }
      ],
      "name": "transferFrom",
      "outputs": [],
      "stateMutability": "nonpayable",
      "type": "function"
    },
    {
      "inputs": [
        {
          "internalType": "uint256",
          "name": "_listPrice",
          "type": "uint256"
        }
      ],
      "name": "updateListPrice",
      "outputs": [],
      "stateMutability": "payable",
      "type": "function",
      "payable": true
    },
    {
      "inputs": [],
      "name": "getListPrice",
      "outputs": [
        {
          "internalType": "uint256",
          "name": "",
          "type": "uint256"
        }
      ],
      "stateMutability": "view",
      "type": "function",
      "constant": true
    },
    {
      "inputs": [],
      "name": "getLatestIdToListedToken",
      "outputs": [
        {
          "components": [
            {
              "internalType": "uint256",
              "name": "tokenId",
              "type": "uint256"
            },
            {
              "internalType": "address payable",
              "name": "owner",
              "type": "address"
            },
            {
              "internalType": "address payable",
              "name": "seller",
              "type": "address"
            },
            {
              "internalType": "uint256",
              "name": "price",
              "type": "uint256"
            },
            {
              "internalType": "bool",
              "name": "currentlyListed",
              "type": "bool"
            }
          ],
          "internalType": "struct NFTMarketplace.ListedToken",
          "name": "",
          "type": "tuple"
        }
      ],
      "stateMutability": "view",
      "type": "function",
      "constant": true
    },
    {
      "inputs": [
        {
          "internalType": "uint256",
          "name": "tokenId",
          "type": "uint256"
        }
      ],
      "name": "getListedTokenForId",
      "outputs": [
        {
          "components": [
            {
              "internalType": "uint256",
              "name": "tokenId",
              "type": "uint256"
            },
            {
              "internalType": "address payable",
              "name": "owner",
              "type": "address"
            },
            {
              "internalType": "address payable",
              "name": "seller",
              "type": "address"
            },
            {
              "internalType": "uint256",
              "name": "price",
              "type": "uint256"
            },
            {
              "internalType": "bool",
              "name": "currentlyListed",
              "type": "bool"
            }
          ],
          "internalType": "struct NFTMarketplace.ListedToken",
          "name": "",
          "type": "tuple"
        }
      ],
      "stateMutability": "view",
      "type": "function",
      "constant": true
    },
    {
      "inputs": [],
      "name": "getCurrentToken",
      "outputs": [
        {
          "internalType": "uint256",
          "name": "",
          "type": "uint256"
        }
      ],
      "stateMutability": "view",
      "type": "function",
      "constant": true
    },
    {
      "inputs": [
        {
          "internalType": "string",
          "name": "tokenURI",
          "type": "string"
        },
        {
          "internalType": "uint256",
          "name": "price",
          "type": "uint256"
        }
      ],
      "name": "createToken",
      "outputs": [
        {
          "internalType": "uint256",
          "name": "",
          "type": "uint256"
        }
      ],
      "stateMutability": "payable",
      "type": "function",
      "payable": true
    },
    {
      "inputs": [],
      "name": "getAllNFTs",
      "outputs": [
        {
          "components": [
            {
              "internalType": "uint256",
              "name": "tokenId",
              "type": "uint256"
            },
            {
              "internalType": "address payable",
              "name": "owner",
              "type": "address"
            },
            {
              "internalType": "address payable",
              "name": "seller",
              "type": "address"
            },
            {
              "internalType": "uint256",
              "name": "price",
              "type": "uint256"
            },
            {
              "internalType": "bool",
              "name": "currentlyListed",
              "type": "bool"
            }
          ],
          "internalType": "struct NFTMarketplace.ListedToken[]",
          "name": "",
          "type": "tuple[]"
        }
      ],
      "stateMutability": "view",
      "type": "function",
      "constant": true
    },
    {
      "inputs": [],
      "name": "getMyNFTs",
      "outputs": [
        {
          "components": [
            {
              "internalType": "uint256",
              "name": "tokenId",
              "type": "uint256"
            },
            {
              "internalType": "address payable",
              "name": "owner",
              "type": "address"
            },
            {
              "internalType": "address payable",
              "name": "seller",
              "type": "address"
            },
            {
              "internalType": "uint256",
              "name": "price",
              "type": "uint256"
            },
            {
              "internalType": "bool",
              "name": "currentlyListed",
              "type": "bool"
            }
          ],
          "internalType": "struct NFTMarketplace.ListedToken[]",
          "name": "",
          "type": "tuple[]"
        }
      ],
      "stateMutability": "view",
      "type": "function",
      "constant": true
    },
    {
      "inputs": [
        {
          "internalType": "uint256",
          "name": "tokenId",
          "type": "uint256"
        }
      ],
      "name": "executeSale",
      "outputs": [],
      "stateMutability": "payable",
      "type": "function",
      "payable": true
    }
  ],
  "bytecode": "0x6080604052662386f26fc10000600a553480156200001c57600080fd5b506040518060400160405280600e81526020017f4e46544d61726b6574706c6163650000000000000000000000000000000000008152506040518060400160405280600481526020017f4e46544d0000000000000000000000000000000000000000000000000000000081525081600090816200009a919062000370565b508060019081620000ac919062000370565b50505033600960006101000a81548173ffffffffffffffffffffffffffffffffffffffff021916908373ffffffffffffffffffffffffffffffffffffffff16021790555062000457565b600081519050919050565b7f4e487b7100000000000000000000000000000000000000000000000000000000600052604160045260246000fd5b7f4e487b7100000000000000000000000000000000000000000000000000000000600052602260045260246000fd5b600060028204905060018216806200017857607f821691505b6020821081036200018e576200018d62000130565b5b50919050565b60008190508160005260206000209050919050565b60006020601f8301049050919050565b600082821b905092915050565b600060088302620001f87fffffffffffffffffffffffffffffffffffffffffffffffffffffffffffffffff82620001b9565b620002048683620001b9565b95508019841693508086168417925050509392505050565b6000819050919050565b6000819050919050565b6000620002516200024b62000245846200021c565b62000226565b6200021c565b9050919050565b6000819050919050565b6200026d8362000230565b620002856200027c8262000258565b848454620001c6565b825550505050565b600090565b6200029c6200028d565b620002a981848462000262565b505050565b5b81811015620002d157620002c560008262000292565b600181019050620002af565b5050565b601f8211156200032057620002ea8162000194565b620002f584620001a9565b8101602085101562000305578190505b6200031d6200031485620001a9565b830182620002ae565b50505b505050565b600082821c905092915050565b6000620003456000198460080262000325565b1980831691505092915050565b600062000360838362000332565b9150826002028217905092915050565b6200037b82620000f6565b67ffffffffffffffff81111562000397576200039662000101565b5b620003a382546200015f565b620003b0828285620002d5565b600060209050601f831160018114620003e85760008415620003d3578287015190505b620003df858262000352565b8655506200044f565b601f198416620003f88662000194565b60005b828110156200042257848901518255600182019150602085019450602081019050620003fb565b868310156200044257848901516200043e601f89168262000332565b8355505b6001600288020188555050505b505050505050565b613f7b80620004676000396000f3fe6080604052600436106101355760003560e01c80638e264590116100ab578063c322579c1161006f578063c322579c14610430578063c87b56dd1461044c578063d1a88ae514610489578063e0391b09146104b4578063e985e9c5146104df578063ef2d17461461051c57610135565b80638e2645901461035a57806395d89b41146103975780639b1225c4146103c2578063a22cb465146103de578063b88d4fde1461040757610135565b806342842e0e116100fd57806342842e0e14610231578063629cb2e41461025a5780636352211e1461028557806368f1945f146102c257806370a08231146102ed57806372b3b6201461032a57610135565b806301ffc9a71461013a57806306fdde0314610177578063081812fc146101a2578063095ea7b3146101df57806323b872dd14610208575b600080fd5b34801561014657600080fd5b50610161600480360381019061015c91906127e0565b610547565b60405161016e9190612828565b60405180910390f35b34801561018357600080fd5b5061018c610629565b60405161019991906128d3565b60405180910390f35b3480156101ae57600080fd5b506101c960048036038101906101c4919061292b565b6106bb565b6040516101d69190612999565b60405180910390f35b3480156101eb57600080fd5b50610206600480360381019061020191906129e0565b610701565b005b34801561021457600080fd5b5061022f600480360381019061022a9190612a20565b610818565b005b34801561023d57600080fd5b5061025860048036038101906102539190612a20565b610878565b005b34801561026657600080fd5b5061026f610898565b60405161027c9190612bc9565b60405180910390f35b34801561029157600080fd5b506102ac60048036038101906102a7919061292b565b610c79565b6040516102b99190612999565b60405180910390f35b3480156102ce57600080fd5b506102d7610d2a565b6040516102e49190612bfa565b60405180910390f35b3480156102f957600080fd5b50610314600480360381019061030f9190612c15565b610d34565b6040516103219190612bfa565b60405180910390f35b610344600480360381019061033f9190612d77565b610deb565b6040516103519190612bfa565b60405180910390f35b34801561036657600080fd5b50610381600480360381019061037c919061292b565b610ebd565b60405161038e9190612e3b565b60405180910390f35b3480156103a357600080fd5b506103ac610fc5565b6040516103b991906128d3565b60405180910390f35b6103dc60048036038101906103d7919061292b565b611057565b005b3480156103ea57600080fd5b5061040560048036038101906104009190612e82565b611249565b005b34801561041357600080fd5b5061042e60048036038101906104299190612f63565b61125f565b005b61044a6004803603810190610445919061292b565b6112c1565b005b34801561045857600080fd5b50610473600480360381019061046e919061292b565b61135b565b60405161048091906128d3565b60405180910390f35b34801561049557600080fd5b5061049e61146d565b6040516104ab9190612e3b565b60405180910390f35b3480156104c057600080fd5b506104c9611582565b6040516104d69190612bc9565b60405180910390f35b3480156104eb57600080fd5b5061050660048036038101906105019190612fe6565b611754565b6040516105139190612828565b60405180910390f35b34801561052857600080fd5b506105316117e8565b60405161053e9190612bfa565b60405180910390f35b60007f80ac58cd000000000000000000000000000000000000000000000000000000007bffffffffffffffffffffffffffffffffffffffffffffffffffffffff1916827bffffffffffffffffffffffffffffffffffffffffffffffffffffffff1916148061061257507f5b5e139f000000000000000000000000000000000000000000000000000000007bffffffffffffffffffffffffffffffffffffffffffffffffffffffff1916827bffffffffffffffffffffffffffffffffffffffffffffffffffffffff1916145b806106225750610621826117f9565b5b9050919050565b60606000805461063890613055565b80601f016020809104026020016040519081016040528092919081815260200182805461066490613055565b80156106b15780601f10610686576101008083540402835291602001916106b1565b820191906000526020600020905b81548152906001019060200180831161069457829003601f168201915b5050505050905090565b60006106c682611863565b6004600083815260200190815260200160002060009054906101000a900473ffffffffffffffffffffffffffffffffffffffff169050919050565b600061070c82610c79565b90508073ffffffffffffffffffffffffffffffffffffffff168373ffffffffffffffffffffffffffffffffffffffff160361077c576040517f08c379a0000000000000000000000000000000000000000000000000000000008152600401610773906130f8565b60405180910390fd5b8073ffffffffffffffffffffffffffffffffffffffff1661079b6118ae565b73ffffffffffffffffffffffffffffffffffffffff1614806107ca57506107c9816107c46118ae565b611754565b5b610809576040517f08c379a00000000000000000000000000000000000000000000000000000000081526004016108009061318a565b60405180910390fd5b61081383836118b6565b505050565b6108296108236118ae565b8261196f565b610868576040517f08c379a000000000000000000000000000000000000000000000000000000000815260040161085f9061321c565b60405180910390fd5b610873838383611a04565b505050565b6108938383836040518060200160405280600081525061125f565b505050565b606060006108a66007611c6a565b9050600080600080600090505b848110156109cc573373ffffffffffffffffffffffffffffffffffffffff16600b60006001846108e3919061326b565b815260200190815260200160002060010160009054906101000a900473ffffffffffffffffffffffffffffffffffffffff1673ffffffffffffffffffffffffffffffffffffffff1614806109a457503373ffffffffffffffffffffffffffffffffffffffff16600b600060018461095a919061326b565b815260200190815260200160002060020160009054906101000a900473ffffffffffffffffffffffffffffffffffffffff1673ffffffffffffffffffffffffffffffffffffffff16145b156109b9576001846109b6919061326b565b93505b80806109c49061329f565b9150506108b3565b5060008367ffffffffffffffff8111156109e9576109e8612c4c565b5b604051908082528060200260200182016040528015610a2257816020015b610a0f612717565b815260200190600190039081610a075790505b50905060005b85811015610c6d573373ffffffffffffffffffffffffffffffffffffffff16600b6000600184610a58919061326b565b815260200190815260200160002060010160009054906101000a900473ffffffffffffffffffffffffffffffffffffffff1673ffffffffffffffffffffffffffffffffffffffff161480610b1957503373ffffffffffffffffffffffffffffffffffffffff16600b6000600184610acf919061326b565b815260200190815260200160002060020160009054906101000a900473ffffffffffffffffffffffffffffffffffffffff1673ffffffffffffffffffffffffffffffffffffffff16145b15610c5a57600181610b2b919061326b565b92506000600b60008581526020019081526020016000209050806040518060a0016040529081600082015481526020016001820160009054906101000a900473ffffffffffffffffffffffffffffffffffffffff1673ffffffffffffffffffffffffffffffffffffffff1673ffffffffffffffffffffffffffffffffffffffff1681526020016002820160009054906101000a900473ffffffffffffffffffffffffffffffffffffffff1673ffffffffffffffffffffffffffffffffffffffff1673ffffffffffffffffffffffffffffffffffffffff168152602001600382015481526020016004820160009054906101000a900460ff161515151581525050838681518110610c3e57610c3d6132e7565b5b6020026020010181905250600185610c56919061326b565b9450505b8080610c659061329f565b915050610a28565b50809550505050505090565b6000806002600084815260200190815260200160002060009054906101000a900473ffffffffffffffffffffffffffffffffffffffff169050600073ffffffffffffffffffffffffffffffffffffffff168173ffffffffffffffffffffffffffffffffffffffff1603610d21576040517f08c379a0000000000000000000000000000000000000000000000000000000008152600401610d1890613362565b60405180910390fd5b80915050919050565b6000600a54905090565b60008073ffffffffffffffffffffffffffffffffffffffff168273ffffffffffffffffffffffffffffffffffffffff1603610da4576040517f08c379a0000000000000000000000000000000000000000000000000000000008152600401610d9b906133f4565b60405180910390fd5b600360008373ffffffffffffffffffffffffffffffffffffffff1673ffffffffffffffffffffffffffffffffffffffff168152602001908152602001600020549050919050565b6000600960009054906101000a900473ffffffffffffffffffffffffffffffffffffffff1673ffffffffffffffffffffffffffffffffffffffff163373ffffffffffffffffffffffffffffffffffffffff1614610e7d576040517f08c379a0000000000000000000000000000000000000000000000000000000008152600401610e7490613486565b60405180910390fd5b610e876007611c78565b6000610e936007611c6a565b9050610e9f3382611c8e565b610ea98185611cac565b610eb38184611d19565b8091505092915050565b610ec5612717565b600b60008381526020019081526020016000206040518060a0016040529081600082015481526020016001820160009054906101000a900473ffffffffffffffffffffffffffffffffffffffff1673ffffffffffffffffffffffffffffffffffffffff1673ffffffffffffffffffffffffffffffffffffffff1681526020016002820160009054906101000a900473ffffffffffffffffffffffffffffffffffffffff1673ffffffffffffffffffffffffffffffffffffffff1673ffffffffffffffffffffffffffffffffffffffff168152602001600382015481526020016004820160009054906101000a900460ff1615151515815250509050919050565b606060018054610fd490613055565b80601f016020809104026020016040519081016040528092919081815260200182805461100090613055565b801561104d5780601f106110225761010080835404028352916020019161104d565b820191906000526020600020905b81548152906001019060200180831161103057829003601f168201915b5050505050905090565b6000600b60008381526020019081526020016000206003015490506000600b600084815260200190815260200160002060020160009054906101000a900473ffffffffffffffffffffffffffffffffffffffff1690508134146110ef576040517f08c379a00000000000000000000000000000000000000000000000000000000081526004016110e690613518565b60405180910390fd5b6001600b600085815260200190815260200160002060040160006101000a81548160ff02191690831515021790555033600b600085815260200190815260200160002060020160006101000a81548173ffffffffffffffffffffffffffffffffffffffff021916908373ffffffffffffffffffffffffffffffffffffffff16021790555061117d6008611c78565b611188303385611a04565b6111923084610701565b600960009054906101000a900473ffffffffffffffffffffffffffffffffffffffff1673ffffffffffffffffffffffffffffffffffffffff166108fc600a549081150290604051600060405180830381858888f193505050501580156111fc573d6000803e3d6000fd5b508073ffffffffffffffffffffffffffffffffffffffff166108fc349081150290604051600060405180830381858888f19350505050158015611243573d6000803e3d6000fd5b50505050565b61125b6112546118ae565b8383611f1c565b5050565b61127061126a6118ae565b8361196f565b6112af576040517f08c379a00000000000000000000000000000000000000000000000000000000081526004016112a69061321c565b60405180910390fd5b6112bb84848484612088565b50505050565b3373ffffffffffffffffffffffffffffffffffffffff16600960009054906101000a900473ffffffffffffffffffffffffffffffffffffffff1673ffffffffffffffffffffffffffffffffffffffff1614611351576040517f08c379a0000000000000000000000000000000000000000000000000000000008152600401611348906135aa565b60405180910390fd5b80600a8190555050565b606061136682611863565b600060066000848152602001908152602001600020805461138690613055565b80601f01602080910402602001604051908101604052809291908181526020018280546113b290613055565b80156113ff5780601f106113d4576101008083540402835291602001916113ff565b820191906000526020600020905b8154815290600101906020018083116113e257829003601f168201915b5050505050905060006114106120e4565b90506000815103611425578192505050611468565b60008251111561145a578082604051602001611442929190613606565b60405160208183030381529060405292505050611468565b611463846120fb565b925050505b919050565b611475612717565b60006114816007611c6a565b9050600b60008281526020019081526020016000206040518060a0016040529081600082015481526020016001820160009054906101000a900473ffffffffffffffffffffffffffffffffffffffff1673ffffffffffffffffffffffffffffffffffffffff1673ffffffffffffffffffffffffffffffffffffffff1681526020016002820160009054906101000a900473ffffffffffffffffffffffffffffffffffffffff1673ffffffffffffffffffffffffffffffffffffffff1673ffffffffffffffffffffffffffffffffffffffff168152602001600382015481526020016004820160009054906101000a900460ff16151515158152505091505090565b606060006115906007611c6a565b905060008167ffffffffffffffff8111156115ae576115ad612c4c565b5b6040519080825280602002602001820160405280156115e757816020015b6115d4612717565b8152602001906001900390816115cc5790505b50905060008080600090505b8481101561174957600181611608919061326b565b91506000600b60008481526020019081526020016000209050806040518060a0016040529081600082015481526020016001820160009054906101000a900473ffffffffffffffffffffffffffffffffffffffff1673ffffffffffffffffffffffffffffffffffffffff1673ffffffffffffffffffffffffffffffffffffffff1681526020016002820160009054906101000a900473ffffffffffffffffffffffffffffffffffffffff1673ffffffffffffffffffffffffffffffffffffffff1673ffffffffffffffffffffffffffffffffffffffff168152602001600382015481526020016004820160009054906101000a900460ff16151515158152505085858151811061171b5761171a6132e7565b5b6020026020010181905250600184611733919061326b565b93505080806117419061329f565b9150506115f3565b508294505050505090565b6000600560008473ffffffffffffffffffffffffffffffffffffffff1673ffffffffffffffffffffffffffffffffffffffff16815260200190815260200160002060008373ffffffffffffffffffffffffffffffffffffffff1673ffffffffffffffffffffffffffffffffffffffff16815260200190815260200160002060009054906101000a900460ff16905092915050565b60006117f46007611c6a565b905090565b60007f01ffc9a7000000000000000000000000000000000000000000000000000000007bffffffffffffffffffffffffffffffffffffffffffffffffffffffff1916827bffffffffffffffffffffffffffffffffffffffffffffffffffffffff1916149050919050565b61186c81612163565b6118ab576040517f08c379a00000000000000000000000000000000000000000000000000000000081526004016118a290613362565b60405180910390fd5b50565b600033905090565b816004600083815260200190815260200160002060006101000a81548173ffffffffffffffffffffffffffffffffffffffff021916908373ffffffffffffffffffffffffffffffffffffffff160217905550808273ffffffffffffffffffffffffffffffffffffffff1661192983610c79565b73ffffffffffffffffffffffffffffffffffffffff167f8c5be1e5ebec7d5bd14f71427d1e84f3dd0314c0f7b2291e5b200ac8c7c3b92560405160405180910390a45050565b60008061197b83610c79565b90508073ffffffffffffffffffffffffffffffffffffffff168473ffffffffffffffffffffffffffffffffffffffff1614806119bd57506119bc8185611754565b5b806119fb57508373ffffffffffffffffffffffffffffffffffffffff166119e3846106bb565b73ffffffffffffffffffffffffffffffffffffffff16145b91505092915050565b8273ffffffffffffffffffffffffffffffffffffffff16611a2482610c79565b73ffffffffffffffffffffffffffffffffffffffff1614611a7a576040517f08c379a0000000000000000000000000000000000000000000000000000000008152600401611a719061369c565b60405180910390fd5b600073ffffffffffffffffffffffffffffffffffffffff168273ffffffffffffffffffffffffffffffffffffffff1603611ae9576040517f08c379a0000000000000000000000000000000000000000000000000000000008152600401611ae09061372e565b60405180910390fd5b611af48383836121cf565b611aff6000826118b6565b6001600360008573ffffffffffffffffffffffffffffffffffffffff1673ffffffffffffffffffffffffffffffffffffffff1681526020019081526020016000206000828254611b4f919061374e565b925050819055506001600360008473ffffffffffffffffffffffffffffffffffffffff1673ffffffffffffffffffffffffffffffffffffffff1681526020019081526020016000206000828254611ba6919061326b565b92505081905550816002600083815260200190815260200160002060006101000a81548173ffffffffffffffffffffffffffffffffffffffff021916908373ffffffffffffffffffffffffffffffffffffffff160217905550808273ffffffffffffffffffffffffffffffffffffffff168473ffffffffffffffffffffffffffffffffffffffff167fddf252ad1be2c89b69c2b068fc378daa952ba7f163c4a11628f55a4df523b3ef60405160405180910390a4611c658383836121d4565b505050565b600081600001549050919050565b6001816000016000828254019250508190555050565b611ca88282604051806020016040528060008152506121d9565b5050565b611cb582612163565b611cf4576040517f08c379a0000000000000000000000000000000000000000000000000000000008152600401611ceb906137f4565b60405180910390fd5b80600660008481526020019081526020016000209081611d1491906139c0565b505050565b600a543414611d5d576040517f08c379a0000000000000000000000000000000000000000000000000000000008152600401611d5490613b04565b60405180910390fd5b60008111611da0576040517f08c379a0000000000000000000000000000000000000000000000000000000008152600401611d9790613b96565b60405180910390fd5b6040518060a001604052808381526020013073ffffffffffffffffffffffffffffffffffffffff1681526020013373ffffffffffffffffffffffffffffffffffffffff16815260200182815260200160011515815250600b60008481526020019081526020016000206000820151816000015560208201518160010160006101000a81548173ffffffffffffffffffffffffffffffffffffffff021916908373ffffffffffffffffffffffffffffffffffffffff16021790555060408201518160020160006101000a81548173ffffffffffffffffffffffffffffffffffffffff021916908373ffffffffffffffffffffffffffffffffffffffff1602179055506060820151816003015560808201518160040160006101000a81548160ff021916908315150217905550905050611ed9333084611a04565b817f9339409317fd01fabff48b703019016f49159bacc801ae872d2ca637d226e4c03033846001604051611f109493929190613bb6565b60405180910390a25050565b8173ffffffffffffffffffffffffffffffffffffffff168373ffffffffffffffffffffffffffffffffffffffff1603611f8a576040517f08c379a0000000000000000000000000000000000000000000000000000000008152600401611f8190613c47565b60405180910390fd5b80600560008573ffffffffffffffffffffffffffffffffffffffff1673ffffffffffffffffffffffffffffffffffffffff16815260200190815260200160002060008473ffffffffffffffffffffffffffffffffffffffff1673ffffffffffffffffffffffffffffffffffffffff16815260200190815260200160002060006101000a81548160ff0219169083151502179055508173ffffffffffffffffffffffffffffffffffffffff168373ffffffffffffffffffffffffffffffffffffffff167f17307eab39ab6107e8899845ad3d59bd9653f200f220920489ca2b5937696c318360405161207b9190612828565b60405180910390a3505050565b612093848484611a04565b61209f84848484612234565b6120de576040517f08c379a00000000000000000000000000000000000000000000000000000000081526004016120d590613cd9565b60405180910390fd5b50505050565b606060405180602001604052806000815250905090565b606061210682611863565b60006121106120e4565b90506000815111612130576040518060200160405280600081525061215b565b8061213a846123bb565b60405160200161214b929190613606565b6040516020818303038152906040525b915050919050565b60008073ffffffffffffffffffffffffffffffffffffffff166002600084815260200190815260200160002060009054906101000a900473ffffffffffffffffffffffffffffffffffffffff1673ffffffffffffffffffffffffffffffffffffffff1614159050919050565b505050565b505050565b6121e3838361251b565b6121f06000848484612234565b61222f576040517f08c379a000000000000000000000000000000000000000000000000000000000815260040161222690613cd9565b60405180910390fd5b505050565b60006122558473ffffffffffffffffffffffffffffffffffffffff166126f4565b156123ae578373ffffffffffffffffffffffffffffffffffffffff1663150b7a0261227e6118ae565b8786866040518563ffffffff1660e01b81526004016122a09493929190613d4e565b6020604051808303816000875af19250505080156122dc57506040513d601f19601f820116820180604052508101906122d99190613daf565b60015b61235e573d806000811461230c576040519150601f19603f3d011682016040523d82523d6000602084013e612311565b606091505b506000815103612356576040517f08c379a000000000000000000000000000000000000000000000000000000000815260040161234d90613cd9565b60405180910390fd5b805181602001fd5b63150b7a0260e01b7bffffffffffffffffffffffffffffffffffffffffffffffffffffffff1916817bffffffffffffffffffffffffffffffffffffffffffffffffffffffff1916149150506123b3565b600190505b949350505050565b606060008203612402576040518060400160405280600181526020017f30000000000000000000000000000000000000000000000000000000000000008152509050612516565b600082905060005b6000821461243457808061241d9061329f565b915050600a8261242d9190613e0b565b915061240a565b60008167ffffffffffffffff8111156124505761244f612c4c565b5b6040519080825280601f01601f1916602001820160405280156124825781602001600182028036833780820191505090505b5090505b6000851461250f5760018261249b919061374e565b9150600a856124aa9190613e3c565b60306124b6919061326b565b60f81b8183815181106124cc576124cb6132e7565b5b60200101907effffffffffffffffffffffffffffffffffffffffffffffffffffffffffffff1916908160001a905350600a856125089190613e0b565b9450612486565b8093505050505b919050565b600073ffffffffffffffffffffffffffffffffffffffff168273ffffffffffffffffffffffffffffffffffffffff160361258a576040517f08c379a000000000000000000000000000000000000000000000000000000000815260040161258190613eb9565b60405180910390fd5b61259381612163565b156125d3576040517f08c379a00000000000000000000000000000000000000000000000000000000081526004016125ca90613f25565b60405180910390fd5b6125df600083836121cf565b6001600360008473ffffffffffffffffffffffffffffffffffffffff1673ffffffffffffffffffffffffffffffffffffffff168152602001908152602001600020600082825461262f919061326b565b92505081905550816002600083815260200190815260200160002060006101000a81548173ffffffffffffffffffffffffffffffffffffffff021916908373ffffffffffffffffffffffffffffffffffffffff160217905550808273ffffffffffffffffffffffffffffffffffffffff16600073ffffffffffffffffffffffffffffffffffffffff167fddf252ad1be2c89b69c2b068fc378daa952ba7f163c4a11628f55a4df523b3ef60405160405180910390a46126f0600083836121d4565b5050565b6000808273ffffffffffffffffffffffffffffffffffffffff163b119050919050565b6040518060a0016040528060008152602001600073ffffffffffffffffffffffffffffffffffffffff168152602001600073ffffffffffffffffffffffffffffffffffffffff168152602001600081526020016000151581525090565b6000604051905090565b600080fd5b600080fd5b60007fffffffff0000000000000000000000000000000000000000000000000000000082169050919050565b6127bd81612788565b81146127c857600080fd5b50565b6000813590506127da816127b4565b92915050565b6000602082840312156127f6576127f561277e565b5b6000612804848285016127cb565b91505092915050565b60008115159050919050565b6128228161280d565b82525050565b600060208201905061283d6000830184612819565b92915050565b600081519050919050565b600082825260208201905092915050565b60005b8381101561287d578082015181840152602081019050612862565b60008484015250505050565b6000601f19601f8301169050919050565b60006128a582612843565b6128af818561284e565b93506128bf81856020860161285f565b6128c881612889565b840191505092915050565b600060208201905081810360008301526128ed818461289a565b905092915050565b6000819050919050565b612908816128f5565b811461291357600080fd5b50565b600081359050612925816128ff565b92915050565b6000602082840312156129415761294061277e565b5b600061294f84828501612916565b91505092915050565b600073ffffffffffffffffffffffffffffffffffffffff82169050919050565b600061298382612958565b9050919050565b61299381612978565b82525050565b60006020820190506129ae600083018461298a565b92915050565b6129bd81612978565b81146129c857600080fd5b50565b6000813590506129da816129b4565b92915050565b600080604083850312156129f7576129f661277e565b5b6000612a05858286016129cb565b9250506020612a1685828601612916565b9150509250929050565b600080600060608486031215612a3957612a3861277e565b5b6000612a47868287016129cb565b9350506020612a58868287016129cb565b9250506040612a6986828701612916565b9150509250925092565b600081519050919050565b600082825260208201905092915050565b6000819050602082019050919050565b612aa8816128f5565b82525050565b6000612ab982612958565b9050919050565b612ac981612aae565b82525050565b612ad88161280d565b82525050565b60a082016000820151612af46000850182612a9f565b506020820151612b076020850182612ac0565b506040820151612b1a6040850182612ac0565b506060820151612b2d6060850182612a9f565b506080820151612b406080850182612acf565b50505050565b6000612b528383612ade565b60a08301905092915050565b6000602082019050919050565b6000612b7682612a73565b612b808185612a7e565b9350612b8b83612a8f565b8060005b83811015612bbc578151612ba38882612b46565b9750612bae83612b5e565b925050600181019050612b8f565b5085935050505092915050565b60006020820190508181036000830152612be38184612b6b565b905092915050565b612bf4816128f5565b82525050565b6000602082019050612c0f6000830184612beb565b92915050565b600060208284031215612c2b57612c2a61277e565b5b6000612c39848285016129cb565b91505092915050565b600080fd5b600080fd5b7f4e487b7100000000000000000000000000000000000000000000000000000000600052604160045260246000fd5b612c8482612889565b810181811067ffffffffffffffff82111715612ca357612ca2612c4c565b5b80604052505050565b6000612cb6612774565b9050612cc28282612c7b565b919050565b600067ffffffffffffffff821115612ce257612ce1612c4c565b5b612ceb82612889565b9050602081019050919050565b82818337600083830152505050565b6000612d1a612d1584612cc7565b612cac565b905082815260208101848484011115612d3657612d35612c47565b5b612d41848285612cf8565b509392505050565b600082601f830112612d5e57612d5d612c42565b5b8135612d6e848260208601612d07565b91505092915050565b60008060408385031215612d8e57612d8d61277e565b5b600083013567ffffffffffffffff811115612dac57612dab612783565b5b612db885828601612d49565b9250506020612dc985828601612916565b9150509250929050565b60a082016000820151612de96000850182612a9f565b506020820151612dfc6020850182612ac0565b506040820151612e0f6040850182612ac0565b506060820151612e226060850182612a9f565b506080820151612e356080850182612acf565b50505050565b600060a082019050612e506000830184612dd3565b92915050565b612e5f8161280d565b8114612e6a57600080fd5b50565b600081359050612e7c81612e56565b92915050565b60008060408385031215612e9957612e9861277e565b5b6000612ea7858286016129cb565b9250506020612eb885828601612e6d565b9150509250929050565b600067ffffffffffffffff821115612edd57612edc612c4c565b5b612ee682612889565b9050602081019050919050565b6000612f06612f0184612ec2565b612cac565b905082815260208101848484011115612f2257612f21612c47565b5b612f2d848285612cf8565b509392505050565b600082601f830112612f4a57612f49612c42565b5b8135612f5a848260208601612ef3565b91505092915050565b60008060008060808587031215612f7d57612f7c61277e565b5b6000612f8b878288016129cb565b9450506020612f9c878288016129cb565b9350506040612fad87828801612916565b925050606085013567ffffffffffffffff811115612fce57612fcd612783565b5b612fda87828801612f35565b91505092959194509250565b60008060408385031215612ffd57612ffc61277e565b5b600061300b858286016129cb565b925050602061301c858286016129cb565b9150509250929050565b7f4e487b7100000000000000000000000000000000000000000000000000000000600052602260045260246000fd5b6000600282049050600182168061306d57607f821691505b6020821081036130805761307f613026565b5b50919050565b7f4552433732313a20617070726f76616c20746f2063757272656e74206f776e6560008201527f7200000000000000000000000000000000000000000000000000000000000000602082015250565b60006130e260218361284e565b91506130ed82613086565b604082019050919050565b60006020820190508181036000830152613111816130d5565b9050919050565b7f4552433732313a20617070726f76652063616c6c6572206973206e6f7420746f60008201527f6b656e206f776e6572206e6f7220617070726f76656420666f7220616c6c0000602082015250565b6000613174603e8361284e565b915061317f82613118565b604082019050919050565b600060208201905081810360008301526131a381613167565b9050919050565b7f4552433732313a2063616c6c6572206973206e6f7420746f6b656e206f776e6560008201527f72206e6f7220617070726f766564000000000000000000000000000000000000602082015250565b6000613206602e8361284e565b9150613211826131aa565b604082019050919050565b60006020820190508181036000830152613235816131f9565b9050919050565b7f4e487b7100000000000000000000000000000000000000000000000000000000600052601160045260246000fd5b6000613276826128f5565b9150613281836128f5565b92508282019050808211156132995761329861323c565b5b92915050565b60006132aa826128f5565b91507fffffffffffffffffffffffffffffffffffffffffffffffffffffffffffffffff82036132dc576132db61323c565b5b600182019050919050565b7f4e487b7100000000000000000000000000000000000000000000000000000000600052603260045260246000fd5b7f4552433732313a20696e76616c696420746f6b656e2049440000000000000000600082015250565b600061334c60188361284e565b915061335782613316565b602082019050919050565b6000602082019050818103600083015261337b8161333f565b9050919050565b7f4552433732313a2061646472657373207a65726f206973206e6f74206120766160008201527f6c6964206f776e65720000000000000000000000000000000000000000000000602082015250565b60006133de60298361284e565b91506133e982613382565b604082019050919050565b6000602082019050818103600083015261340d816133d1565b9050919050565b7f546869732066756e6374696f6e206973207265737472696374656420746f207460008201527f686520636f6e74726163742773206f776e657221000000000000000000000000602082015250565b600061347060348361284e565b915061347b82613414565b604082019050919050565b6000602082019050818103600083015261349f81613463565b9050919050565b7f506c65617365207375626d6974207468652061736b696e67207072696365206960008201527f6e206f7264657220746f20636f6d706c65746520746865207075726368617365602082015250565b600061350260408361284e565b915061350d826134a6565b604082019050919050565b60006020820190508181036000830152613531816134f5565b9050919050565b7f4f6e6c79206f776e65722063616e20757064617465206c697374696e6720707260008201527f6963650000000000000000000000000000000000000000000000000000000000602082015250565b600061359460238361284e565b915061359f82613538565b604082019050919050565b600060208201905081810360008301526135c381613587565b9050919050565b600081905092915050565b60006135e082612843565b6135ea81856135ca565b93506135fa81856020860161285f565b80840191505092915050565b600061361282856135d5565b915061361e82846135d5565b91508190509392505050565b7f4552433732313a207472616e736665722066726f6d20696e636f72726563742060008201527f6f776e6572000000000000000000000000000000000000000000000000000000602082015250565b600061368660258361284e565b91506136918261362a565b604082019050919050565b600060208201905081810360008301526136b581613679565b9050919050565b7f4552433732313a207472616e7366657220746f20746865207a65726f2061646460008201527f7265737300000000000000000000000000000000000000000000000000000000602082015250565b600061371860248361284e565b9150613723826136bc565b604082019050919050565b600060208201905081810360008301526137478161370b565b9050919050565b6000613759826128f5565b9150613764836128f5565b925082820390508181111561377c5761377b61323c565b5b92915050565b7f45524337323155524953746f726167653a2055524920736574206f66206e6f6e60008201527f6578697374656e7420746f6b656e000000000000000000000000000000000000602082015250565b60006137de602e8361284e565b91506137e982613782565b604082019050919050565b6000602082019050818103600083015261380d816137d1565b9050919050565b60008190508160005260206000209050919050565b60006020601f8301049050919050565b600082821b905092915050565b6000600883026138767fffffffffffffffffffffffffffffffffffffffffffffffffffffffffffffffff82613839565b6138808683613839565b95508019841693508086168417925050509392505050565b6000819050919050565b60006138bd6138b86138b3846128f5565b613898565b6128f5565b9050919050565b6000819050919050565b6138d7836138a2565b6138eb6138e3826138c4565b848454613846565b825550505050565b600090565b6139006138f3565b61390b8184846138ce565b505050565b5b8181101561392f576139246000826138f8565b600181019050613911565b5050565b601f8211156139745761394581613814565b61394e84613829565b8101602085101561395d578190505b61397161396985613829565b830182613910565b50505b505050565b600082821c905092915050565b600061399760001984600802613979565b1980831691505092915050565b60006139b08383613986565b9150826002028217905092915050565b6139c982612843565b67ffffffffffffffff8111156139e2576139e1612c4c565b5b6139ec8254613055565b6139f7828285613933565b600060209050601f831160018114613a2a5760008415613a18578287015190505b613a2285826139a4565b865550613a8a565b601f198416613a3886613814565b60005b82811015613a6057848901518255600182019150602085019450602081019050613a3b565b86831015613a7d5784890151613a79601f891682613986565b8355505b6001600288020188555050505b505050505050565b7f486f706566756c6c792073656e64696e672074686520636f727265637420707260008201527f6963650000000000000000000000000000000000000000000000000000000000602082015250565b6000613aee60238361284e565b9150613af982613a92565b604082019050919050565b60006020820190508181036000830152613b1d81613ae1565b9050919050565b7f4d616b652073757265207468652070726963652069736e2774206e656761746960008201527f7665000000000000000000000000000000000000000000000000000000000000602082015250565b6000613b8060228361284e565b9150613b8b82613b24565b604082019050919050565b60006020820190508181036000830152613baf81613b73565b9050919050565b6000608082019050613bcb600083018761298a565b613bd8602083018661298a565b613be56040830185612beb565b613bf26060830184612819565b95945050505050565b7f4552433732313a20617070726f766520746f2063616c6c657200000000000000600082015250565b6000613c3160198361284e565b9150613c3c82613bfb565b602082019050919050565b60006020820190508181036000830152613c6081613c24565b9050919050565b7f4552433732313a207472616e7366657220746f206e6f6e20455243373231526560008201527f63656976657220696d706c656d656e7465720000000000000000000000000000602082015250565b6000613cc360328361284e565b9150613cce82613c67565b604082019050919050565b60006020820190508181036000830152613cf281613cb6565b9050919050565b600081519050919050565b600082825260208201905092915050565b6000613d2082613cf9565b613d2a8185613d04565b9350613d3a81856020860161285f565b613d4381612889565b840191505092915050565b6000608082019050613d63600083018761298a565b613d70602083018661298a565b613d7d6040830185612beb565b8181036060830152613d8f8184613d15565b905095945050505050565b600081519050613da9816127b4565b92915050565b600060208284031215613dc557613dc461277e565b5b6000613dd384828501613d9a565b91505092915050565b7f4e487b7100000000000000000000000000000000000000000000000000000000600052601260045260246000fd5b6000613e16826128f5565b9150613e21836128f5565b925082613e3157613e30613ddc565b5b828204905092915050565b6000613e47826128f5565b9150613e52836128f5565b925082613e6257613e61613ddc565b5b828206905092915050565b7f4552433732313a206d696e7420746f20746865207a65726f2061646472657373600082015250565b6000613ea360208361284e565b9150613eae82613e6d565b602082019050919050565b60006020820190508181036000830152613ed281613e96565b9050919050565b7f4552433732313a20746f6b656e20616c7265616479206d696e74656400000000600082015250565b6000613f0f601c8361284e565b9150613f1a82613ed9565b602082019050919050565b60006020820190508181036000830152613f3e81613f02565b905091905056fea2646970667358221220588a8238351b34d78d2cc571be2cb20805c1447a70a4db47ebf55e658983146464736f6c63430008130033",
  "immutableReferences": {},
  "source": "//SPDX-License-Identifier: Unlicense\npragma solidity ^0.8.0;\n\nimport \"hardhat/console.sol\";\nimport \"@openzeppelin/contracts/utils/Counters.sol\";\nimport \"@openzeppelin/contracts/token/ERC721/extensions/ERC721URIStorage.sol\";\nimport \"@openzeppelin/contracts/token/ERC721/ERC721.sol\";\n\ncontract NFTMarketplace is ERC721URIStorage {\n    using Counters for Counters.Counter;\n    //_tokenIds variable has the most recent minted tokenId\n    Counters.Counter private _tokenIds;\n    //Keeps track of the number of items sold on the marketplace\n    Counters.Counter private _itemsSold;\n    //owner is the contract address that created the smart contract\n    address payable owner;\n    //The fee charged by the marketplace to be allowed to list an NFT\n    uint256 listPrice = 0.01 ether;\n\n    //The structure to store info about a listed token\n    struct ListedToken {\n        uint256 tokenId;\n        address payable owner;\n        address payable seller;\n        uint256 price;\n        bool currentlyListed;\n    }\n\n    modifier ownerOnly() {\n        require(\n            msg.sender == owner,\n            \"This function is restricted to the contract's owner!\"\n        );\n        _;\n    }\n\n    //the event emitted when a token is successfully listed\n    event TokenListedSuccess(\n        uint256 indexed tokenId,\n        address owner,\n        address seller,\n        uint256 price,\n        bool currentlyListed\n    );\n\n    //This mapping maps tokenId to token info and is helpful when retrieving details about a tokenId\n    mapping(uint256 => ListedToken) private idToListedToken;\n\n    constructor() ERC721(\"NFTMarketplace\", \"NFTM\") {\n        owner = payable(msg.sender);\n    }\n\n    function updateListPrice(uint256 _listPrice) public payable {\n        require(owner == msg.sender, \"Only owner can update listing price\");\n        listPrice = _listPrice;\n    }\n\n    function getListPrice() public view returns (uint256) {\n        return listPrice;\n    }\n\n    function getLatestIdToListedToken()\n        public\n        view\n        returns (ListedToken memory)\n    {\n        uint256 currentTokenId = _tokenIds.current();\n        return idToListedToken[currentTokenId];\n    }\n\n    function getListedTokenForId(\n        uint256 tokenId\n    ) public view returns (ListedToken memory) {\n        return idToListedToken[tokenId];\n    }\n\n    function getCurrentToken() public view returns (uint256) {\n        return _tokenIds.current();\n    }\n\n    //The first time a token is created, it is listed here\n    function createToken(\n        string memory tokenURI,\n        uint256 price\n    ) public payable ownerOnly returns (uint) {\n        //Increment the tokenId counter, which is keeping track of the number of minted NFTs\n        _tokenIds.increment();\n        uint256 newTokenId = _tokenIds.current();\n        //Mint the NFT with tokenId newTokenId to the address who called createToken\n        _safeMint(msg.sender, newTokenId);\n        //Map the tokenId to the tokenURI (which is an IPFS URL with the NFT metadata)\n        _setTokenURI(newTokenId, tokenURI);\n        //Helper function to update Global variables and emit an event\n        createListedToken(newTokenId, price);\n        return newTokenId;\n    }\n\n    function createListedToken(uint256 tokenId, uint256 price) private {\n        //Make sure the sender sent enough ETH to pay for listing\n        require(msg.value == listPrice, \"Hopefully sending the correct price\");\n        //Just sanity check\n        require(price > 0, \"Make sure the price isn't negative\");\n\n        //Update the mapping of tokenId's to Token details, useful for retrieval functions\n        idToListedToken[tokenId] = ListedToken(\n            tokenId,\n            payable(address(this)),\n            payable(msg.sender),\n            price,\n            true\n        );\n\n        _transfer(msg.sender, address(this), tokenId);\n        //Emit the event for successful transfer. The frontend parses this message and updates the end user\n        emit TokenListedSuccess(\n            tokenId,\n            address(this),\n            msg.sender,\n            price,\n            true\n        );\n    }\n\n    //This will return all the NFTs currently listed to be sold on the marketplace\n    function getAllNFTs() public view returns (ListedToken[] memory) {\n        uint nftCount = _tokenIds.current();\n        ListedToken[] memory tokens = new ListedToken[](nftCount);\n        uint currentIndex = 0;\n        uint currentId;\n        //at the moment currentlyListed is true for all, if it becomes false in the future we will\n        //filter out currentlyListed == false over here\n        for (uint i = 0; i < nftCount; i++) {\n            currentId = i + 1;\n            ListedToken storage currentItem = idToListedToken[currentId];\n            tokens[currentIndex] = currentItem;\n            currentIndex += 1;\n        }\n        //the array 'tokens' has the list of all NFTs in the marketplace\n        return tokens;\n    }\n\n    //Returns all the NFTs that the current user is owner or seller in\n    function getMyNFTs() public view returns (ListedToken[] memory) {\n        uint totalItemCount = _tokenIds.current();\n        uint itemCount = 0;\n        uint currentIndex = 0;\n        uint currentId;\n        //Important to get a count of all the NFTs that belong to the user before we can make an array for them\n        for (uint i = 0; i < totalItemCount; i++) {\n            if (\n                idToListedToken[i + 1].owner == msg.sender ||\n                idToListedToken[i + 1].seller == msg.sender\n            ) {\n                itemCount += 1;\n            }\n        }\n\n        //Once you have the count of relevant NFTs, create an array then store all the NFTs in it\n        ListedToken[] memory items = new ListedToken[](itemCount);\n        for (uint i = 0; i < totalItemCount; i++) {\n            if (\n                idToListedToken[i + 1].owner == msg.sender ||\n                idToListedToken[i + 1].seller == msg.sender\n            ) {\n                currentId = i + 1;\n                ListedToken storage currentItem = idToListedToken[currentId];\n                items[currentIndex] = currentItem;\n                currentIndex += 1;\n            }\n        }\n        return items;\n    }\n\n    function executeSale(uint256 tokenId) public payable {\n        uint price = idToListedToken[tokenId].price;\n        address seller = idToListedToken[tokenId].seller;\n        require(\n            msg.value == price,\n            \"Please submit the asking price in order to complete the purchase\"\n        );\n\n        //update the details of the token\n        idToListedToken[tokenId].currentlyListed = true;\n        idToListedToken[tokenId].seller = payable(msg.sender);\n        _itemsSold.increment();\n\n        //Actually transfer the token to the new owner\n        _transfer(address(this), msg.sender, tokenId);\n        //approve the marketplace to sell NFTs on your behalf\n        approve(address(this), tokenId);\n\n        //Transfer the listing fee to the marketplace creator\n        payable(owner).transfer(listPrice);\n        //Transfer the proceeds from the sale to the seller of the NFT\n        payable(seller).transfer(msg.value);\n    }\n\n    //We might add a resell token function in the future\n    //In that case, tokens won't be listed by default but users can send a request to actually list a token\n    //Currently NFTs are listed by default\n}\n",
  "sourcePath": "C:\\sbangar\\Personal\\Personal\\Personal\\Study\\BlockChain\\Blockchain_Advance\\NFT-Marketplace-Tutorial-master\\src\\contracts\\NFTMarketplace.sol",
  "compiler": {
    "name": "solc",
    "version": "0.8.19+commit.7dd6d404.Emscripten.clang"
  },
  "schemaVersion": "3.4.13",
  "updatedAt": "2023-03-29T22:20:06.519Z",
  "networkType": "ethereum",
  "devdoc": {
    "events": {
      "Approval(address,address,uint256)": {
        "details": "Emitted when `owner` enables `approved` to manage the `tokenId` token."
      },
      "ApprovalForAll(address,address,bool)": {
        "details": "Emitted when `owner` enables or disables (`approved`) `operator` to manage all of its assets."
      },
      "Transfer(address,address,uint256)": {
        "details": "Emitted when `tokenId` token is transferred from `from` to `to`."
      }
    },
    "kind": "dev",
    "methods": {
      "approve(address,uint256)": {
        "details": "See {IERC721-approve}."
      },
      "balanceOf(address)": {
        "details": "See {IERC721-balanceOf}."
      },
      "getApproved(uint256)": {
        "details": "See {IERC721-getApproved}."
      },
      "isApprovedForAll(address,address)": {
        "details": "See {IERC721-isApprovedForAll}."
      },
      "name()": {
        "details": "See {IERC721Metadata-name}."
      },
      "ownerOf(uint256)": {
        "details": "See {IERC721-ownerOf}."
      },
      "safeTransferFrom(address,address,uint256)": {
        "details": "See {IERC721-safeTransferFrom}."
      },
      "safeTransferFrom(address,address,uint256,bytes)": {
        "details": "See {IERC721-safeTransferFrom}."
      },
      "setApprovalForAll(address,bool)": {
        "details": "See {IERC721-setApprovalForAll}."
      },
      "supportsInterface(bytes4)": {
        "details": "See {IERC165-supportsInterface}."
      },
      "symbol()": {
        "details": "See {IERC721Metadata-symbol}."
      },
      "tokenURI(uint256)": {
        "details": "See {IERC721Metadata-tokenURI}."
      },
      "transferFrom(address,address,uint256)": {
        "details": "See {IERC721-transferFrom}."
      }
    },
    "version": 1
  },
  "userdoc": {
    "kind": "user",
    "methods": {},
    "version": 1
  }
}